:100000000C9434000C943E000C943E000C943E0082
:100010000C943E000C943E000C943E000C943E0068
:100020000C943E000C943E000C943E000C943E0058
:100030000C943E000C943E000C943E000C943E0048
:100040000C943E000C943E000C943E000C943E0038
:100050000C943E000C943E000C943E000C943E0028
:100060000C943E000C943E0011241FBECFEFD8E04C
:10007000DEBFCDBF0E9440000C948D000C940000A8
:10008000DF93CF93CDB7DEB7A4E2B0E0E4E2F0E0D7
:10009000808181608C93A4E2B0E0E4E2F0E08081B2
:1000A0008F7B8C93A5E2B0E0E5E2F0E08081806494
:1000B0008C93A4E2B0E0E4E2F0E080818F778C934F
:1000C000A5E2B0E0E5E2F0E0808180688C93E3E2B5
:1000D000F0E080818823CCF0E3E2F0E08081882F9B
:1000E00090E080749070009741F4A5E2B0E0E5E202
:1000F000F0E0808181608C93EACFA5E2B0E0E5E298
:10010000F0E080818E7F8C93E2CFA5E2B0E0E5E263
:0E011000F0E080818E7F8C93DACFF894FFCFE1
:00000001FF
